{
  "contractName": "OCoinCrowdsale",
  "abi": [
    {
      "constant": true,
      "inputs": [],
      "name": "endTime",
      "outputs": [
        {
          "name": "",
          "type": "uint256"
        }
      ],
      "payable": false,
      "stateMutability": "view",
      "type": "function"
    },
    {
      "constant": true,
      "inputs": [],
      "name": "minPurchase",
      "outputs": [
        {
          "name": "",
          "type": "uint256"
        }
      ],
      "payable": false,
      "stateMutability": "view",
      "type": "function"
    },
    {
      "constant": true,
      "inputs": [],
      "name": "goal",
      "outputs": [
        {
          "name": "",
          "type": "uint256"
        }
      ],
      "payable": false,
      "stateMutability": "view",
      "type": "function"
    },
    {
      "constant": false,
      "inputs": [],
      "name": "finalize",
      "outputs": [],
      "payable": false,
      "stateMutability": "nonpayable",
      "type": "function"
    },
    {
      "constant": true,
      "inputs": [],
      "name": "tokenSaled",
      "outputs": [
        {
          "name": "",
          "type": "uint256"
        }
      ],
      "payable": false,
      "stateMutability": "view",
      "type": "function"
    },
    {
      "constant": true,
      "inputs": [],
      "name": "totalToken",
      "outputs": [
        {
          "name": "",
          "type": "uint256"
        }
      ],
      "payable": false,
      "stateMutability": "view",
      "type": "function"
    },
    {
      "constant": true,
      "inputs": [],
      "name": "goalReached",
      "outputs": [
        {
          "name": "",
          "type": "bool"
        }
      ],
      "payable": false,
      "stateMutability": "view",
      "type": "function"
    },
    {
      "constant": true,
      "inputs": [],
      "name": "isFinalized",
      "outputs": [
        {
          "name": "",
          "type": "bool"
        }
      ],
      "payable": false,
      "stateMutability": "view",
      "type": "function"
    },
    {
      "constant": true,
      "inputs": [],
      "name": "owner",
      "outputs": [
        {
          "name": "",
          "type": "address"
        }
      ],
      "payable": false,
      "stateMutability": "view",
      "type": "function"
    },
    {
      "constant": false,
      "inputs": [],
      "name": "claimRefund",
      "outputs": [],
      "payable": false,
      "stateMutability": "nonpayable",
      "type": "function"
    },
    {
      "constant": false,
      "inputs": [
        {
          "name": "beneficiary",
          "type": "address"
        }
      ],
      "name": "buyTokens",
      "outputs": [],
      "payable": true,
      "stateMutability": "payable",
      "type": "function"
    },
    {
      "constant": true,
      "inputs": [],
      "name": "hasEnded",
      "outputs": [
        {
          "name": "",
          "type": "bool"
        }
      ],
      "payable": false,
      "stateMutability": "view",
      "type": "function"
    },
    {
      "constant": false,
      "inputs": [
        {
          "name": "newOwner",
          "type": "address"
        }
      ],
      "name": "transferOwnership",
      "outputs": [],
      "payable": false,
      "stateMutability": "nonpayable",
      "type": "function"
    },
    {
      "constant": false,
      "inputs": [
        {
          "name": "to",
          "type": "address"
        },
        {
          "name": "value",
          "type": "uint256"
        }
      ],
      "name": "withdraw",
      "outputs": [],
      "payable": false,
      "stateMutability": "nonpayable",
      "type": "function"
    },
    {
      "constant": true,
      "inputs": [],
      "name": "vault",
      "outputs": [
        {
          "name": "",
          "type": "address"
        }
      ],
      "payable": false,
      "stateMutability": "view",
      "type": "function"
    },
    {
      "constant": true,
      "inputs": [],
      "name": "token",
      "outputs": [
        {
          "name": "",
          "type": "address"
        }
      ],
      "payable": false,
      "stateMutability": "view",
      "type": "function"
    },
    {
      "inputs": [
        {
          "name": "_token",
          "type": "address"
        }
      ],
      "payable": false,
      "stateMutability": "nonpayable",
      "type": "constructor"
    },
    {
      "payable": true,
      "stateMutability": "payable",
      "type": "fallback"
    },
    {
      "anonymous": false,
      "inputs": [
        {
          "indexed": true,
          "name": "purchaser",
          "type": "address"
        },
        {
          "indexed": true,
          "name": "beneficiary",
          "type": "address"
        },
        {
          "indexed": false,
          "name": "value",
          "type": "uint256"
        },
        {
          "indexed": false,
          "name": "amount",
          "type": "uint256"
        }
      ],
      "name": "TokenPurchase",
      "type": "event"
    },
    {
      "anonymous": false,
      "inputs": [],
      "name": "Finalized",
      "type": "event"
    },
    {
      "anonymous": false,
      "inputs": [
        {
          "indexed": false,
          "name": "to",
          "type": "address"
        },
        {
          "indexed": false,
          "name": "value",
          "type": "uint256"
        }
      ],
      "name": "Withdraw",
      "type": "event"
    },
    {
      "anonymous": false,
      "inputs": [
        {
          "indexed": true,
          "name": "previousOwner",
          "type": "address"
        },
        {
          "indexed": true,
          "name": "newOwner",
          "type": "address"
        }
      ],
      "name": "OwnershipTransferred",
      "type": "event"
    }
  ],
  "bytecode": "0x60606040526000600960006101000a81548160ff0219169083151502179055506000600c55341561002f57600080fd5b60405160208062001f1083398101604052808051906020019091905050336000806101000a81548173ffffffffffffffffffffffffffffffffffffffff021916908373ffffffffffffffffffffffffffffffffffffffff160217905550600073ffffffffffffffffffffffffffffffffffffffff168173ffffffffffffffffffffffffffffffffffffffff16141515156100c857600080fd5b6100d061034c565b604051809103906000f08015156100e657600080fd5b600d60006101000a81548173ffffffffffffffffffffffffffffffffffffffff021916908373ffffffffffffffffffffffffffffffffffffffff16021790555080600160006101000a81548173ffffffffffffffffffffffffffffffffffffffff021916908373ffffffffffffffffffffffffffffffffffffffff160217905550635ada0e80600281905550426002541015151561018357600080fd5b6706f05b59d3b20000600381905550683635c9adc5dea00000600481905550681b1ae4d6e2ef5000006005819055506201a0aa60068190555062015b3860078190555062013880600881905550600160009054906101000a900473ffffffffffffffffffffffffffffffffffffffff1673ffffffffffffffffffffffffffffffffffffffff1663313ce5676000604051602001526040518163ffffffff167c0100000000000000000000000000000000000000000000000000000000028152600401602060405180830381600087803b151561025e57600080fd5b6102c65a03f1151561026f57600080fd5b5050506040518051905060ff16600a0a637735940002600b81905550600160009054906101000a900473ffffffffffffffffffffffffffffffffffffffff1673ffffffffffffffffffffffffffffffffffffffff1663313ce5676000604051602001526040518163ffffffff167c0100000000000000000000000000000000000000000000000000000000028152600401602060405180830381600087803b151561031957600080fd5b6102c65a03f1151561032a57600080fd5b5050506040518051905060ff16600a0a63ee6b280002600a819055505061035d565b6040516109f0806200152083390190565b6111b3806200036d6000396000f3006060604052600436106100e6576000357c0100000000000000000000000000000000000000000000000000000000900463ffffffff1680633197cbb6146100f157806333b5b62e1461011a57806340193883146101435780634bb278f31461016c57806354f090bd14610181578063626be567146101aa5780637d3d6522146101d35780638d4e4083146102005780638da5cb5b1461022d578063b5545a3c14610282578063ec8ac4d814610297578063ecb70fb7146102c5578063f2fde38b146102f2578063f3fef3a31461032b578063fbfa77cf1461036d578063fc0c546a146103c2575b6100ef33610417565b005b34156100fc57600080fd5b610104610762565b6040518082815260200191505060405180910390f35b341561012557600080fd5b61012d610768565b6040518082815260200191505060405180910390f35b341561014e57600080fd5b61015661076e565b6040518082815260200191505060405180910390f35b341561017757600080fd5b61017f610774565b005b341561018c57600080fd5b610194610a38565b6040518082815260200191505060405180910390f35b34156101b557600080fd5b6101bd610a3e565b6040518082815260200191505060405180910390f35b34156101de57600080fd5b6101e6610a44565b604051808215151515815260200191505060405180910390f35b341561020b57600080fd5b610213610a53565b604051808215151515815260200191505060405180910390f35b341561023857600080fd5b610240610a66565b604051808273ffffffffffffffffffffffffffffffffffffffff1673ffffffffffffffffffffffffffffffffffffffff16815260200191505060405180910390f35b341561028d57600080fd5b610295610a8b565b005b6102c3600480803573ffffffffffffffffffffffffffffffffffffffff16906020019091905050610417565b005b34156102d057600080fd5b6102d8610b8c565b604051808215151515815260200191505060405180910390f35b34156102fd57600080fd5b610329600480803573ffffffffffffffffffffffffffffffffffffffff16906020019091905050610b98565b005b341561033657600080fd5b61036b600480803573ffffffffffffffffffffffffffffffffffffffff16906020019091908035906020019091905050610ced565b005b341561037857600080fd5b610380610ea2565b604051808273ffffffffffffffffffffffffffffffffffffffff1673ffffffffffffffffffffffffffffffffffffffff16815260200191505060405180910390f35b34156103cd57600080fd5b6103d5610ec8565b604051808273ffffffffffffffffffffffffffffffffffffffff1673ffffffffffffffffffffffffffffffffffffffff16815260200191505060405180910390f35b60008060008073ffffffffffffffffffffffffffffffffffffffff168473ffffffffffffffffffffffffffffffffffffffff161415151561045757600080fd5b61045f610eee565b151561046a57600080fd5b349250600454831015156104945761048d60065484610f1490919063ffffffff16565b91506104d4565b600554831015156104bb576104b460075484610f1490919063ffffffff16565b91506104d3565b6104d060085484610f1490919063ffffffff16565b91505b5b600c54600a540382111515156104e957600080fd5b6104fe82600c54610f4f90919063ffffffff16565b600c8190555060028281151561051057fe5b049050600160009054906101000a900473ffffffffffffffffffffffffffffffffffffffff1673ffffffffffffffffffffffffffffffffffffffff1663a9059cbb85836000604051602001526040518363ffffffff167c0100000000000000000000000000000000000000000000000000000000028152600401808373ffffffffffffffffffffffffffffffffffffffff1673ffffffffffffffffffffffffffffffffffffffff16815260200182815260200192505050602060405180830381600087803b15156105e057600080fd5b6102c65a03f115156105f157600080fd5b5050506040518051905050600160009054906101000a900473ffffffffffffffffffffffffffffffffffffffff1673ffffffffffffffffffffffffffffffffffffffff16631e822140858385036000604051602001526040518363ffffffff167c0100000000000000000000000000000000000000000000000000000000028152600401808373ffffffffffffffffffffffffffffffffffffffff1673ffffffffffffffffffffffffffffffffffffffff16815260200182815260200192505050602060405180830381600087803b15156106cb57600080fd5b6102c65a03f115156106dc57600080fd5b50505060405180519050508373ffffffffffffffffffffffffffffffffffffffff163373ffffffffffffffffffffffffffffffffffffffff167f623b3804fa71d67900d064613da8f94b9617215ee90799290593e1745087ad188585604051808381526020018281526020019250505060405180910390a361075c610f6d565b50505050565b60025481565b60035481565b600b5481565b6000809054906101000a900473ffffffffffffffffffffffffffffffffffffffff1673ffffffffffffffffffffffffffffffffffffffff163373ffffffffffffffffffffffffffffffffffffffff161415156107cf57600080fd5b600960009054906101000a900460ff161515156107eb57600080fd5b6107f3610b8c565b15156107fe57600080fd5b610806611040565b7f6823b073d48d6e3a7d385eeb601452d680e74bb46afe3255a7d778f3a9b1768160405160405180910390a1600160009054906101000a900473ffffffffffffffffffffffffffffffffffffffff1673ffffffffffffffffffffffffffffffffffffffff1663a9059cbb6000809054906101000a900473ffffffffffffffffffffffffffffffffffffffff16600160009054906101000a900473ffffffffffffffffffffffffffffffffffffffff1673ffffffffffffffffffffffffffffffffffffffff166370a08231306000604051602001526040518263ffffffff167c0100000000000000000000000000000000000000000000000000000000028152600401808273ffffffffffffffffffffffffffffffffffffffff1673ffffffffffffffffffffffffffffffffffffffff168152602001915050602060405180830381600087803b151561095757600080fd5b6102c65a03f1151561096857600080fd5b505050604051805190506000604051602001526040518363ffffffff167c0100000000000000000000000000000000000000000000000000000000028152600401808373ffffffffffffffffffffffffffffffffffffffff1673ffffffffffffffffffffffffffffffffffffffff16815260200182815260200192505050602060405180830381600087803b15156109ff57600080fd5b6102c65a03f11515610a1057600080fd5b50505060405180519050506001600960006101000a81548160ff021916908315150217905550565b600c5481565b600a5481565b6000600b54600c541015905090565b600960009054906101000a900460ff1681565b6000809054906101000a900473ffffffffffffffffffffffffffffffffffffffff1681565b600960009054906101000a900460ff161515610aa657600080fd5b610aae610a44565b151515610aba57600080fd5b600d60009054906101000a900473ffffffffffffffffffffffffffffffffffffffff1673ffffffffffffffffffffffffffffffffffffffff1663fa89401a336040518263ffffffff167c0100000000000000000000000000000000000000000000000000000000028152600401808273ffffffffffffffffffffffffffffffffffffffff1673ffffffffffffffffffffffffffffffffffffffff168152602001915050600060405180830381600087803b1515610b7657600080fd5b6102c65a03f11515610b8757600080fd5b505050565b60006002544211905090565b6000809054906101000a900473ffffffffffffffffffffffffffffffffffffffff1673ffffffffffffffffffffffffffffffffffffffff163373ffffffffffffffffffffffffffffffffffffffff16141515610bf357600080fd5b600073ffffffffffffffffffffffffffffffffffffffff168173ffffffffffffffffffffffffffffffffffffffff1614151515610c2f57600080fd5b8073ffffffffffffffffffffffffffffffffffffffff166000809054906101000a900473ffffffffffffffffffffffffffffffffffffffff1673ffffffffffffffffffffffffffffffffffffffff167f8be0079c531659141344cd1fd0a4f28419497f9722a3daafe3b4186f6b6457e060405160405180910390a3806000806101000a81548173ffffffffffffffffffffffffffffffffffffffff021916908373ffffffffffffffffffffffffffffffffffffffff16021790555050565b6000809054906101000a900473ffffffffffffffffffffffffffffffffffffffff1673ffffffffffffffffffffffffffffffffffffffff163373ffffffffffffffffffffffffffffffffffffffff16141515610d4857600080fd5b610d50610a44565b1515610d5b57600080fd5b600d60009054906101000a900473ffffffffffffffffffffffffffffffffffffffff1673ffffffffffffffffffffffffffffffffffffffff1663f3fef3a383836040518363ffffffff167c0100000000000000000000000000000000000000000000000000000000028152600401808373ffffffffffffffffffffffffffffffffffffffff1673ffffffffffffffffffffffffffffffffffffffff16815260200182815260200192505050600060405180830381600087803b1515610e1f57600080fd5b6102c65a03f11515610e3057600080fd5b5050507f884edad9ce6fa2440d8a54cc123490eb96d2768479d49ff9c7366125a94243648282604051808373ffffffffffffffffffffffffffffffffffffffff1673ffffffffffffffffffffffffffffffffffffffff1681526020018281526020019250505060405180910390a15050565b600d60009054906101000a900473ffffffffffffffffffffffffffffffffffffffff1681565b600160009054906101000a900473ffffffffffffffffffffffffffffffffffffffff1681565b600080600060025442111591506003543410159050818015610f0d5750805b9250505090565b6000806000841415610f295760009150610f48565b8284029050828482811515610f3a57fe5b04141515610f4457fe5b8091505b5092915050565b6000808284019050838110151515610f6357fe5b8091505092915050565b600d60009054906101000a900473ffffffffffffffffffffffffffffffffffffffff1673ffffffffffffffffffffffffffffffffffffffff1663f340fa0134336040518363ffffffff167c0100000000000000000000000000000000000000000000000000000000028152600401808273ffffffffffffffffffffffffffffffffffffffff1673ffffffffffffffffffffffffffffffffffffffff1681526020019150506000604051808303818588803b151561102957600080fd5b6125ee5a03f1151561103a57600080fd5b50505050565b611048610a44565b156110eb57600d60009054906101000a900473ffffffffffffffffffffffffffffffffffffffff1673ffffffffffffffffffffffffffffffffffffffff166343d726d66040518163ffffffff167c0100000000000000000000000000000000000000000000000000000000028152600401600060405180830381600087803b15156110d257600080fd5b6102c65a03f115156110e357600080fd5b505050611185565b600d60009054906101000a900473ffffffffffffffffffffffffffffffffffffffff1673ffffffffffffffffffffffffffffffffffffffff16638c52dc416040518163ffffffff167c0100000000000000000000000000000000000000000000000000000000028152600401600060405180830381600087803b151561117057600080fd5b6102c65a03f1151561118157600080fd5b5050505b5600a165627a7a72305820bacd1ec25f9256401374ebaaed52b9bbef463e8300aa66112147a86e92110c9f00296060604052341561000f57600080fd5b336000806101000a81548173ffffffffffffffffffffffffffffffffffffffff021916908373ffffffffffffffffffffffffffffffffffffffff1602179055506000600260006101000a81548160ff0219169083600281111561006e57fe5b021790555061096e806100826000396000f300606060405260043610610099576000357c0100000000000000000000000000000000000000000000000000000000900463ffffffff16806343d726d61461009e5780638c52dc41146100b35780638da5cb5b146100c8578063c19d93fb1461011d578063cb13cddb14610154578063f2fde38b146101a1578063f340fa01146101da578063f3fef3a314610208578063fa89401a1461024a575b600080fd5b34156100a957600080fd5b6100b1610283565b005b34156100be57600080fd5b6100c6610363565b005b34156100d357600080fd5b6100db610444565b604051808273ffffffffffffffffffffffffffffffffffffffff1673ffffffffffffffffffffffffffffffffffffffff16815260200191505060405180910390f35b341561012857600080fd5b610130610469565b6040518082600281111561014057fe5b60ff16815260200191505060405180910390f35b341561015f57600080fd5b61018b600480803573ffffffffffffffffffffffffffffffffffffffff1690602001909190505061047c565b6040518082815260200191505060405180910390f35b34156101ac57600080fd5b6101d8600480803573ffffffffffffffffffffffffffffffffffffffff16906020019091905050610494565b005b610206600480803573ffffffffffffffffffffffffffffffffffffffff169060200190919050506105e9565b005b341561021357600080fd5b610248600480803573ffffffffffffffffffffffffffffffffffffffff16906020019091908035906020019091905050610710565b005b341561025557600080fd5b610281600480803573ffffffffffffffffffffffffffffffffffffffff169060200190919050506107d5565b005b6000809054906101000a900473ffffffffffffffffffffffffffffffffffffffff1673ffffffffffffffffffffffffffffffffffffffff163373ffffffffffffffffffffffffffffffffffffffff161415156102de57600080fd5b600060028111156102eb57fe5b600260009054906101000a900460ff16600281111561030657fe5b14151561031257600080fd5b60028060006101000a81548160ff0219169083600281111561033057fe5b02179055507f1cdde67b72a90f19919ac732a437ac2f7a10fc128d28c2a6e525d89ce5cd9d3a60405160405180910390a1565b6000809054906101000a900473ffffffffffffffffffffffffffffffffffffffff1673ffffffffffffffffffffffffffffffffffffffff163373ffffffffffffffffffffffffffffffffffffffff161415156103be57600080fd5b600060028111156103cb57fe5b600260009054906101000a900460ff1660028111156103e657fe5b1415156103f257600080fd5b6001600260006101000a81548160ff0219169083600281111561041157fe5b02179055507f599d8e5a83cffb867d051598c4d70e805d59802d8081c1c7d6dffc5b6aca2b8960405160405180910390a1565b6000809054906101000a900473ffffffffffffffffffffffffffffffffffffffff1681565b600260009054906101000a900460ff1681565b60016020528060005260406000206000915090505481565b6000809054906101000a900473ffffffffffffffffffffffffffffffffffffffff1673ffffffffffffffffffffffffffffffffffffffff163373ffffffffffffffffffffffffffffffffffffffff161415156104ef57600080fd5b600073ffffffffffffffffffffffffffffffffffffffff168173ffffffffffffffffffffffffffffffffffffffff161415151561052b57600080fd5b8073ffffffffffffffffffffffffffffffffffffffff166000809054906101000a900473ffffffffffffffffffffffffffffffffffffffff1673ffffffffffffffffffffffffffffffffffffffff167f8be0079c531659141344cd1fd0a4f28419497f9722a3daafe3b4186f6b6457e060405160405180910390a3806000806101000a81548173ffffffffffffffffffffffffffffffffffffffff021916908373ffffffffffffffffffffffffffffffffffffffff16021790555050565b6000809054906101000a900473ffffffffffffffffffffffffffffffffffffffff1673ffffffffffffffffffffffffffffffffffffffff163373ffffffffffffffffffffffffffffffffffffffff1614151561064457600080fd5b6000600281111561065157fe5b600260009054906101000a900460ff16600281111561066c57fe5b14151561067857600080fd5b6106ca34600160008473ffffffffffffffffffffffffffffffffffffffff1673ffffffffffffffffffffffffffffffffffffffff1681526020019081526020016000205461092490919063ffffffff16565b600160008373ffffffffffffffffffffffffffffffffffffffff1673ffffffffffffffffffffffffffffffffffffffff1681526020019081526020016000208190555050565b6000809054906101000a900473ffffffffffffffffffffffffffffffffffffffff1673ffffffffffffffffffffffffffffffffffffffff163373ffffffffffffffffffffffffffffffffffffffff1614151561076b57600080fd5b803073ffffffffffffffffffffffffffffffffffffffff16311015151561079157600080fd5b8173ffffffffffffffffffffffffffffffffffffffff166108fc829081150290604051600060405180830381858888f1935050505015156107d157600080fd5b5050565b6000600160028111156107e457fe5b600260009054906101000a900460ff1660028111156107ff57fe5b14151561080b57600080fd5b600160008373ffffffffffffffffffffffffffffffffffffffff1673ffffffffffffffffffffffffffffffffffffffff1681526020019081526020016000205490506000600160008473ffffffffffffffffffffffffffffffffffffffff1673ffffffffffffffffffffffffffffffffffffffff168152602001908152602001600020819055508173ffffffffffffffffffffffffffffffffffffffff166108fc829081150290604051600060405180830381858888f1935050505015156108d257600080fd5b8173ffffffffffffffffffffffffffffffffffffffff167fd7dee2702d63ad89917b6a4da9981c90c4d24f8c2bdfd64c604ecae57d8d0651826040518082815260200191505060405180910390a25050565b600080828401905083811015151561093857fe5b80915050929150505600a165627a7a723058203ce65de4331d4a52fb2402da4af44db5a2952f5027e183149877893f5ba6e7fa0029",
  "source": "\r\npragma solidity ^0.4.18;\r\n\r\nimport './Ownable.sol';\r\nimport './SafeMath.sol';\r\nimport './OCoin.sol';\r\nimport './RefundVault.sol';\r\n\r\ncontract OCoinCrowdsale is Ownable {\r\n  using SafeMath for uint256;\r\n\r\n  OCoin public token;\r\n\r\n  uint256 public endTime;\r\n\r\n\r\n  uint public minPurchase;\r\n  uint exchangeStage1;\r\n  uint exchangeStage2;\r\n  uint exchangeRate1;\r\n  uint exchangeRate2;\r\n  uint exchangeRate3;\r\n  \r\n  bool public isFinalized = false;\r\n\r\n  uint256 public totalToken;\r\n  uint256 public goal;\r\n  uint256 public tokenSaled = 0;\r\n\r\n  RefundVault public vault;\r\n\r\n  event TokenPurchase(address indexed purchaser, address indexed beneficiary, uint256 value, uint256 amount);\r\n  event Finalized();\r\n  event Withdraw(address to, uint value);\r\n\r\n  function OCoinCrowdsale(address _token) public {\r\n    require(_token != address(0));\r\n    vault = new RefundVault();\r\n    token = OCoin(_token);\r\n    endTime = 1524240000;                                   // 2018/4/21 00:00:00\r\n    require(endTime >= now);\r\n    minPurchase = 0.5 ether;\r\n    exchangeStage1 = 1000 ether;\r\n    exchangeStage2 = 500 ether;\r\n    exchangeRate1 = 106666;\r\n    exchangeRate2 = 88888;\r\n    exchangeRate3 = 80000;\r\n    goal = 2000000000 * 10 ** uint256(token.decimals());\r\n    totalToken = 4000000000 * 10 ** uint256(token.decimals());\r\n  }\r\n\r\n  // fallback function can be used to buy tokens\r\n  function () external payable {\r\n    buyTokens(msg.sender);\r\n  }\r\n\r\n  // low level token purchase function\r\n  function buyTokens(address beneficiary) public payable {\r\n    require(beneficiary != address(0));\r\n    require(validPurchase());\r\n\r\n    uint256 weiAmount = msg.value;\r\n\r\n    // calculate token amount to be created\r\n    uint256 buytokens;\r\n    if (weiAmount >= exchangeStage1) {\r\n      buytokens = weiAmount.mul(exchangeRate1);\r\n    }else if (weiAmount >= exchangeStage2) {\r\n      buytokens = weiAmount.mul(exchangeRate2);\r\n    }else {\r\n      buytokens = weiAmount.mul(exchangeRate3);\r\n    }\r\n    require(buytokens <= totalToken - tokenSaled);\r\n\r\n    // update state\r\n    tokenSaled = tokenSaled.add(buytokens);\r\n\r\n    uint halfTokens = buytokens / 2;\r\n\r\n    token.transfer(beneficiary, halfTokens);\r\n    token.transferToLockedBalance(beneficiary, buytokens - halfTokens);\r\n    TokenPurchase(msg.sender, beneficiary, weiAmount, buytokens);\r\n\r\n    forwardFunds();\r\n  }\r\n\r\n  function finalize() onlyOwner public {\r\n    require(!isFinalized);\r\n    require(hasEnded());\r\n\r\n    finalization();\r\n    Finalized();\r\n\r\n    token.transfer(owner,token.balanceOf(this));\r\n\r\n    isFinalized = true;\r\n  }\r\n  \r\n  function claimRefund() public {\r\n    require(isFinalized);\r\n    require(!goalReached());\r\n\r\n    vault.refund(msg.sender);\r\n  }\r\n\r\n  function withdraw(address to, uint value) onlyOwner public {\r\n    require(goalReached());\r\n    vault.withdraw(to,value);\r\n    Withdraw(to,value);\r\n  }\r\n  \r\n  function hasEnded() public view returns (bool) {\r\n    return now > endTime;\r\n  }\r\n\r\n  function goalReached() public view returns (bool) {\r\n    return tokenSaled >= goal;\r\n  }\r\n\r\n  function forwardFunds() internal {\r\n    vault.deposit.value(msg.value)(msg.sender);\r\n  }\r\n  \r\n  function validPurchase() internal view returns (bool) {\r\n    bool withinPeriod = now <= endTime;\r\n    bool purchaseAmount = msg.value >= minPurchase;\r\n    return withinPeriod && purchaseAmount;\r\n  }\r\n\r\n  function finalization() internal {\r\n    if (goalReached()) {\r\n      vault.close();\r\n    } else {\r\n      vault.enableRefunds();\r\n    }\r\n  }\r\n}\r\n",
  "sourcePath": "E:\\OCoin_Contract\\contracts\\OCoinCrowsale.sol",
  "compiler": {
    "name": "solc",
    "version": "0.4.18+commit.9cf6e910.Emscripten.clang"
  },
  "schemaVersion": "1.0.1",
  "updatedAt": "2018-01-18T11:14:55.541Z"
}