{
  "contractName": "RefundVault",
  "abi": [
    {
      "constant": false,
      "inputs": [],
      "name": "close",
      "outputs": [],
      "payable": false,
      "stateMutability": "nonpayable",
      "type": "function"
    },
    {
      "constant": false,
      "inputs": [],
      "name": "enableRefunds",
      "outputs": [],
      "payable": false,
      "stateMutability": "nonpayable",
      "type": "function"
    },
    {
      "constant": true,
      "inputs": [],
      "name": "owner",
      "outputs": [
        {
          "name": "",
          "type": "address"
        }
      ],
      "payable": false,
      "stateMutability": "view",
      "type": "function"
    },
    {
      "constant": true,
      "inputs": [],
      "name": "state",
      "outputs": [
        {
          "name": "",
          "type": "uint8"
        }
      ],
      "payable": false,
      "stateMutability": "view",
      "type": "function"
    },
    {
      "constant": true,
      "inputs": [
        {
          "name": "",
          "type": "address"
        }
      ],
      "name": "deposited",
      "outputs": [
        {
          "name": "",
          "type": "uint256"
        }
      ],
      "payable": false,
      "stateMutability": "view",
      "type": "function"
    },
    {
      "constant": false,
      "inputs": [
        {
          "name": "newOwner",
          "type": "address"
        }
      ],
      "name": "transferOwnership",
      "outputs": [],
      "payable": false,
      "stateMutability": "nonpayable",
      "type": "function"
    },
    {
      "constant": false,
      "inputs": [
        {
          "name": "investor",
          "type": "address"
        }
      ],
      "name": "deposit",
      "outputs": [],
      "payable": true,
      "stateMutability": "payable",
      "type": "function"
    },
    {
      "constant": false,
      "inputs": [
        {
          "name": "wallet",
          "type": "address"
        },
        {
          "name": "value",
          "type": "uint256"
        }
      ],
      "name": "withdraw",
      "outputs": [],
      "payable": false,
      "stateMutability": "nonpayable",
      "type": "function"
    },
    {
      "constant": false,
      "inputs": [
        {
          "name": "investor",
          "type": "address"
        }
      ],
      "name": "refund",
      "outputs": [],
      "payable": false,
      "stateMutability": "nonpayable",
      "type": "function"
    },
    {
      "inputs": [],
      "payable": false,
      "stateMutability": "nonpayable",
      "type": "constructor"
    },
    {
      "anonymous": false,
      "inputs": [],
      "name": "Closed",
      "type": "event"
    },
    {
      "anonymous": false,
      "inputs": [],
      "name": "RefundsEnabled",
      "type": "event"
    },
    {
      "anonymous": false,
      "inputs": [
        {
          "indexed": true,
          "name": "beneficiary",
          "type": "address"
        },
        {
          "indexed": false,
          "name": "weiAmount",
          "type": "uint256"
        }
      ],
      "name": "Refunded",
      "type": "event"
    },
    {
      "anonymous": false,
      "inputs": [
        {
          "indexed": true,
          "name": "previousOwner",
          "type": "address"
        },
        {
          "indexed": true,
          "name": "newOwner",
          "type": "address"
        }
      ],
      "name": "OwnershipTransferred",
      "type": "event"
    }
  ],
  "bytecode": "0x6060604052341561000f57600080fd5b336000806101000a81548173ffffffffffffffffffffffffffffffffffffffff021916908373ffffffffffffffffffffffffffffffffffffffff1602179055506000600260006101000a81548160ff0219169083600281111561006e57fe5b021790555061096e806100826000396000f300606060405260043610610099576000357c0100000000000000000000000000000000000000000000000000000000900463ffffffff16806343d726d61461009e5780638c52dc41146100b35780638da5cb5b146100c8578063c19d93fb1461011d578063cb13cddb14610154578063f2fde38b146101a1578063f340fa01146101da578063f3fef3a314610208578063fa89401a1461024a575b600080fd5b34156100a957600080fd5b6100b1610283565b005b34156100be57600080fd5b6100c6610363565b005b34156100d357600080fd5b6100db610444565b604051808273ffffffffffffffffffffffffffffffffffffffff1673ffffffffffffffffffffffffffffffffffffffff16815260200191505060405180910390f35b341561012857600080fd5b610130610469565b6040518082600281111561014057fe5b60ff16815260200191505060405180910390f35b341561015f57600080fd5b61018b600480803573ffffffffffffffffffffffffffffffffffffffff1690602001909190505061047c565b6040518082815260200191505060405180910390f35b34156101ac57600080fd5b6101d8600480803573ffffffffffffffffffffffffffffffffffffffff16906020019091905050610494565b005b610206600480803573ffffffffffffffffffffffffffffffffffffffff169060200190919050506105e9565b005b341561021357600080fd5b610248600480803573ffffffffffffffffffffffffffffffffffffffff16906020019091908035906020019091905050610710565b005b341561025557600080fd5b610281600480803573ffffffffffffffffffffffffffffffffffffffff169060200190919050506107d5565b005b6000809054906101000a900473ffffffffffffffffffffffffffffffffffffffff1673ffffffffffffffffffffffffffffffffffffffff163373ffffffffffffffffffffffffffffffffffffffff161415156102de57600080fd5b600060028111156102eb57fe5b600260009054906101000a900460ff16600281111561030657fe5b14151561031257600080fd5b60028060006101000a81548160ff0219169083600281111561033057fe5b02179055507f1cdde67b72a90f19919ac732a437ac2f7a10fc128d28c2a6e525d89ce5cd9d3a60405160405180910390a1565b6000809054906101000a900473ffffffffffffffffffffffffffffffffffffffff1673ffffffffffffffffffffffffffffffffffffffff163373ffffffffffffffffffffffffffffffffffffffff161415156103be57600080fd5b600060028111156103cb57fe5b600260009054906101000a900460ff1660028111156103e657fe5b1415156103f257600080fd5b6001600260006101000a81548160ff0219169083600281111561041157fe5b02179055507f599d8e5a83cffb867d051598c4d70e805d59802d8081c1c7d6dffc5b6aca2b8960405160405180910390a1565b6000809054906101000a900473ffffffffffffffffffffffffffffffffffffffff1681565b600260009054906101000a900460ff1681565b60016020528060005260406000206000915090505481565b6000809054906101000a900473ffffffffffffffffffffffffffffffffffffffff1673ffffffffffffffffffffffffffffffffffffffff163373ffffffffffffffffffffffffffffffffffffffff161415156104ef57600080fd5b600073ffffffffffffffffffffffffffffffffffffffff168173ffffffffffffffffffffffffffffffffffffffff161415151561052b57600080fd5b8073ffffffffffffffffffffffffffffffffffffffff166000809054906101000a900473ffffffffffffffffffffffffffffffffffffffff1673ffffffffffffffffffffffffffffffffffffffff167f8be0079c531659141344cd1fd0a4f28419497f9722a3daafe3b4186f6b6457e060405160405180910390a3806000806101000a81548173ffffffffffffffffffffffffffffffffffffffff021916908373ffffffffffffffffffffffffffffffffffffffff16021790555050565b6000809054906101000a900473ffffffffffffffffffffffffffffffffffffffff1673ffffffffffffffffffffffffffffffffffffffff163373ffffffffffffffffffffffffffffffffffffffff1614151561064457600080fd5b6000600281111561065157fe5b600260009054906101000a900460ff16600281111561066c57fe5b14151561067857600080fd5b6106ca34600160008473ffffffffffffffffffffffffffffffffffffffff1673ffffffffffffffffffffffffffffffffffffffff1681526020019081526020016000205461092490919063ffffffff16565b600160008373ffffffffffffffffffffffffffffffffffffffff1673ffffffffffffffffffffffffffffffffffffffff1681526020019081526020016000208190555050565b6000809054906101000a900473ffffffffffffffffffffffffffffffffffffffff1673ffffffffffffffffffffffffffffffffffffffff163373ffffffffffffffffffffffffffffffffffffffff1614151561076b57600080fd5b803073ffffffffffffffffffffffffffffffffffffffff16311015151561079157600080fd5b8173ffffffffffffffffffffffffffffffffffffffff166108fc829081150290604051600060405180830381858888f1935050505015156107d157600080fd5b5050565b6000600160028111156107e457fe5b600260009054906101000a900460ff1660028111156107ff57fe5b14151561080b57600080fd5b600160008373ffffffffffffffffffffffffffffffffffffffff1673ffffffffffffffffffffffffffffffffffffffff1681526020019081526020016000205490506000600160008473ffffffffffffffffffffffffffffffffffffffff1673ffffffffffffffffffffffffffffffffffffffff168152602001908152602001600020819055508173ffffffffffffffffffffffffffffffffffffffff166108fc829081150290604051600060405180830381858888f1935050505015156108d257600080fd5b8173ffffffffffffffffffffffffffffffffffffffff167fd7dee2702d63ad89917b6a4da9981c90c4d24f8c2bdfd64c604ecae57d8d0651826040518082815260200191505060405180910390a25050565b600080828401905083811015151561093857fe5b80915050929150505600a165627a7a723058203ce65de4331d4a52fb2402da4af44db5a2952f5027e183149877893f5ba6e7fa0029",
  "source": "pragma solidity ^0.4.18;\r\n\r\nimport './SafeMath.sol';\r\nimport './Ownable.sol';\r\n\r\ncontract RefundVault is Ownable {\r\n  using SafeMath for uint256;\r\n\r\n  enum State { Active, Refunding, Closed }\r\n\r\n  mapping (address => uint256) public deposited;\r\n  State public state;\r\n\r\n  event Closed();\r\n  event RefundsEnabled();\r\n  event Refunded(address indexed beneficiary, uint256 weiAmount);\r\n\r\n  function RefundVault() public {\r\n    state = State.Active;\r\n  }\r\n\r\n  function deposit(address investor) onlyOwner public payable {\r\n    require(state == State.Active);\r\n    deposited[investor] = deposited[investor].add(msg.value);\r\n  }\r\n\r\n  function close() onlyOwner public {\r\n    require(state == State.Active);\r\n    state = State.Closed;\r\n    Closed();\r\n  }\r\n\r\n  function withdraw(address wallet, uint value) onlyOwner public {\r\n    require(this.balance >= value);\r\n    wallet.transfer(value);\r\n  }\r\n\r\n  function enableRefunds() onlyOwner public {\r\n    require(state == State.Active);\r\n    state = State.Refunding;\r\n    RefundsEnabled();\r\n  }\r\n\r\n  function refund(address investor) public {\r\n    require(state == State.Refunding);\r\n    uint256 depositedValue = deposited[investor];\r\n    deposited[investor] = 0;\r\n    investor.transfer(depositedValue);\r\n    Refunded(investor, depositedValue);\r\n  }\r\n}\r\n",
  "sourcePath": "E:\\OCoin_Contract\\contracts\\RefundVault.sol",
  "compiler": {
    "name": "solc",
    "version": "0.4.18+commit.9cf6e910.Emscripten.clang"
  },
  "schemaVersion": "1.0.1",
  "updatedAt": "2018-01-18T11:14:55.542Z"
}